{
  "contractName": "LazyNFT",
  "abi": [
    {
      "inputs": [],
      "stateMutability": "nonpayable",
      "type": "constructor"
    },
    {
      "anonymous": false,
      "inputs": [
        {
          "indexed": true,
          "internalType": "address",
          "name": "owner",
          "type": "address"
        },
        {
          "indexed": true,
          "internalType": "address",
          "name": "approved",
          "type": "address"
        },
        {
          "indexed": true,
          "internalType": "uint256",
          "name": "tokenId",
          "type": "uint256"
        }
      ],
      "name": "Approval",
      "type": "event"
    },
    {
      "anonymous": false,
      "inputs": [
        {
          "indexed": true,
          "internalType": "address",
          "name": "owner",
          "type": "address"
        },
        {
          "indexed": true,
          "internalType": "address",
          "name": "operator",
          "type": "address"
        },
        {
          "indexed": false,
          "internalType": "bool",
          "name": "approved",
          "type": "bool"
        }
      ],
      "name": "ApprovalForAll",
      "type": "event"
    },
    {
      "anonymous": false,
      "inputs": [
        {
          "indexed": true,
          "internalType": "address",
          "name": "from",
          "type": "address"
        },
        {
          "indexed": true,
          "internalType": "address",
          "name": "to",
          "type": "address"
        },
        {
          "indexed": true,
          "internalType": "uint256",
          "name": "tokenId",
          "type": "uint256"
        }
      ],
      "name": "Transfer",
      "type": "event"
    },
    {
      "inputs": [
        {
          "internalType": "address",
          "name": "to",
          "type": "address"
        },
        {
          "internalType": "uint256",
          "name": "tokenId",
          "type": "uint256"
        }
      ],
      "name": "approve",
      "outputs": [],
      "stateMutability": "nonpayable",
      "type": "function"
    },
    {
      "inputs": [
        {
          "internalType": "address",
          "name": "owner",
          "type": "address"
        }
      ],
      "name": "balanceOf",
      "outputs": [
        {
          "internalType": "uint256",
          "name": "",
          "type": "uint256"
        }
      ],
      "stateMutability": "view",
      "type": "function",
      "constant": true
    },
    {
      "inputs": [
        {
          "internalType": "uint256",
          "name": "",
          "type": "uint256"
        }
      ],
      "name": "creators",
      "outputs": [
        {
          "internalType": "address",
          "name": "",
          "type": "address"
        }
      ],
      "stateMutability": "view",
      "type": "function",
      "constant": true
    },
    {
      "inputs": [
        {
          "internalType": "uint256",
          "name": "tokenId",
          "type": "uint256"
        }
      ],
      "name": "getApproved",
      "outputs": [
        {
          "internalType": "address",
          "name": "",
          "type": "address"
        }
      ],
      "stateMutability": "view",
      "type": "function",
      "constant": true
    },
    {
      "inputs": [
        {
          "internalType": "address",
          "name": "owner",
          "type": "address"
        },
        {
          "internalType": "address",
          "name": "operator",
          "type": "address"
        }
      ],
      "name": "isApprovedForAll",
      "outputs": [
        {
          "internalType": "bool",
          "name": "",
          "type": "bool"
        }
      ],
      "stateMutability": "view",
      "type": "function",
      "constant": true
    },
    {
      "inputs": [],
      "name": "name",
      "outputs": [
        {
          "internalType": "string",
          "name": "",
          "type": "string"
        }
      ],
      "stateMutability": "view",
      "type": "function",
      "constant": true
    },
    {
      "inputs": [
        {
          "internalType": "uint256",
          "name": "tokenId",
          "type": "uint256"
        }
      ],
      "name": "ownerOf",
      "outputs": [
        {
          "internalType": "address",
          "name": "",
          "type": "address"
        }
      ],
      "stateMutability": "view",
      "type": "function",
      "constant": true
    },
    {
      "inputs": [
        {
          "internalType": "address",
          "name": "from",
          "type": "address"
        },
        {
          "internalType": "address",
          "name": "to",
          "type": "address"
        },
        {
          "internalType": "uint256",
          "name": "tokenId",
          "type": "uint256"
        }
      ],
      "name": "safeTransferFrom",
      "outputs": [],
      "stateMutability": "nonpayable",
      "type": "function"
    },
    {
      "inputs": [
        {
          "internalType": "address",
          "name": "from",
          "type": "address"
        },
        {
          "internalType": "address",
          "name": "to",
          "type": "address"
        },
        {
          "internalType": "uint256",
          "name": "tokenId",
          "type": "uint256"
        },
        {
          "internalType": "bytes",
          "name": "_data",
          "type": "bytes"
        }
      ],
      "name": "safeTransferFrom",
      "outputs": [],
      "stateMutability": "nonpayable",
      "type": "function"
    },
    {
      "inputs": [
        {
          "internalType": "address",
          "name": "operator",
          "type": "address"
        },
        {
          "internalType": "bool",
          "name": "approved",
          "type": "bool"
        }
      ],
      "name": "setApprovalForAll",
      "outputs": [],
      "stateMutability": "nonpayable",
      "type": "function"
    },
    {
      "inputs": [],
      "name": "symbol",
      "outputs": [
        {
          "internalType": "string",
          "name": "",
          "type": "string"
        }
      ],
      "stateMutability": "view",
      "type": "function",
      "constant": true
    },
    {
      "inputs": [
        {
          "internalType": "uint256",
          "name": "tokenId",
          "type": "uint256"
        }
      ],
      "name": "tokenURI",
      "outputs": [
        {
          "internalType": "string",
          "name": "",
          "type": "string"
        }
      ],
      "stateMutability": "view",
      "type": "function",
      "constant": true
    },
    {
      "inputs": [
        {
          "internalType": "address",
          "name": "from",
          "type": "address"
        },
        {
          "internalType": "address",
          "name": "to",
          "type": "address"
        },
        {
          "internalType": "uint256",
          "name": "tokenId",
          "type": "uint256"
        }
      ],
      "name": "transferFrom",
      "outputs": [],
      "stateMutability": "nonpayable",
      "type": "function"
    },
    {
      "inputs": [
        {
          "internalType": "address",
          "name": "redeemer",
          "type": "address"
        },
        {
          "components": [
            {
              "internalType": "address",
              "name": "creator",
              "type": "address"
            },
            {
              "internalType": "uint256",
              "name": "tokenId",
              "type": "uint256"
            },
            {
              "internalType": "uint256",
              "name": "price",
              "type": "uint256"
            },
            {
              "internalType": "address",
              "name": "currency",
              "type": "address"
            },
            {
              "internalType": "string",
              "name": "uri",
              "type": "string"
            },
            {
              "internalType": "bytes",
              "name": "signature",
              "type": "bytes"
            }
          ],
          "internalType": "struct NFTVoucher",
          "name": "voucher",
          "type": "tuple"
        }
      ],
      "name": "redeem",
      "outputs": [
        {
          "internalType": "uint256",
          "name": "",
          "type": "uint256"
        }
      ],
      "stateMutability": "nonpayable",
      "type": "function"
    },
    {
      "inputs": [],
      "name": "getChainId",
      "outputs": [
        {
          "internalType": "uint256",
          "name": "",
          "type": "uint256"
        }
      ],
      "stateMutability": "view",
      "type": "function",
      "constant": true
    },
    {
      "inputs": [
        {
          "internalType": "address",
          "name": "to",
          "type": "address"
        },
        {
          "internalType": "uint256[]",
          "name": "tokenIds",
          "type": "uint256[]"
        }
      ],
      "name": "setCreator",
      "outputs": [],
      "stateMutability": "nonpayable",
      "type": "function"
    },
    {
      "inputs": [
        {
          "internalType": "bytes4",
          "name": "interfaceId",
          "type": "bytes4"
        }
      ],
      "name": "supportsInterface",
      "outputs": [
        {
          "internalType": "bool",
          "name": "",
          "type": "bool"
        }
      ],
      "stateMutability": "view",
      "type": "function",
      "constant": true
    }
  ],
  "bytecode": "0x6101406040523480156200001257600080fd5b506040518060400160405280600f81526020017f4c617a794e46542d566f756368657200000000000000000000000000000000008152506040518060400160405280600181526020017f31000000000000000000000000000000000000000000000000000000000000008152506040518060400160405280600781526020017f6d6563686c696e000000000000000000000000000000000000000000000000008152506040518060400160405280600381526020017f6d636b000000000000000000000000000000000000000000000000000000000081525081600090805190602001906200010392919062000213565b5080600190805190602001906200011c92919062000213565b50505060008280519060200120905060008280519060200120905060007f8b73c3c69bb8fe3d512ecc4cf759cc79239f7b179b0ffacaa9a75d522b39400f90508260e081815250508161010081815250504660a0818152505062000188818484620001d760201b60201c565b608081815250503073ffffffffffffffffffffffffffffffffffffffff1660c08173ffffffffffffffffffffffffffffffffffffffff16815250508061012081815250505050505050620003ff565b60008383834630604051602001620001f49594939291906200033e565b6040516020818303038152906040528051906020012090509392505050565b8280546200022190620003ca565b90600052602060002090601f01602090048101928262000245576000855562000291565b82601f106200026057805160ff191683800117855562000291565b8280016001018555821562000291579182015b828111156200029057825182559160200191906001019062000273565b5b509050620002a09190620002a4565b5090565b5b80821115620002bf576000816000905550600101620002a5565b5090565b6000819050919050565b620002d881620002c3565b82525050565b6000819050919050565b620002f381620002de565b82525050565b600073ffffffffffffffffffffffffffffffffffffffff82169050919050565b60006200032682620002f9565b9050919050565b620003388162000319565b82525050565b600060a082019050620003556000830188620002cd565b620003646020830187620002cd565b620003736040830186620002cd565b620003826060830185620002e8565b6200039160808301846200032d565b9695505050505050565b7f4e487b7100000000000000000000000000000000000000000000000000000000600052602260045260246000fd5b60006002820490506001821680620003e357607f821691505b602082108103620003f957620003f86200039b565b5b50919050565b60805160a05160c05160e0516101005161012051613f9e6200044f60003960006121590152600061219b0152600061217a015260006120af015260006121050152600061212e0152613f9e6000f3fe608060405234801561001057600080fd5b506004361061010b5760003560e01c806370a08231116100a2578063c87b56dd11610071578063c87b56dd146102b6578063cc917893146102e6578063cd53d08e14610316578063d2a6b51a14610346578063e985e9c5146103625761010b565b806370a082311461023057806395d89b4114610260578063a22cb4651461027e578063b88d4fde1461029a5761010b565b806323b872dd116100de57806323b872dd146101aa5780633408e470146101c657806342842e0e146101e45780636352211e146102005761010b565b806301ffc9a71461011057806306fdde0314610140578063081812fc1461015e578063095ea7b31461018e575b600080fd5b61012a600480360381019061012591906124ac565b610392565b60405161013791906124f4565b60405180910390f35b6101486103a4565b60405161015591906125a8565b60405180910390f35b61017860048036038101906101739190612600565b610436565b604051610185919061266e565b60405180910390f35b6101a860048036038101906101a391906126b5565b6104bb565b005b6101c460048036038101906101bf91906126f5565b6105d2565b005b6101ce610632565b6040516101db9190612757565b60405180910390f35b6101fe60048036038101906101f991906126f5565b61063a565b005b61021a60048036038101906102159190612600565b61065a565b604051610227919061266e565b60405180910390f35b61024a60048036038101906102459190612772565b61070b565b6040516102579190612757565b60405180910390f35b6102686107c2565b60405161027591906125a8565b60405180910390f35b610298600480360381019061029391906127cb565b610854565b005b6102b460048036038101906102af9190612940565b61086a565b005b6102d060048036038101906102cb9190612600565b6108cc565b6040516102dd91906125a8565b60405180910390f35b61030060048036038101906102fb91906129e7565b610a1d565b60405161030d9190612757565b60405180910390f35b610330600480360381019061032b9190612600565b610cd7565b60405161033d919061266e565b60405180910390f35b610360600480360381019061035b9190612b0b565b610d0a565b005b61037c60048036038101906103779190612b67565b610dc7565b60405161038991906124f4565b60405180910390f35b600061039d82610e5b565b9050919050565b6060600080546103b390612bd6565b80601f01602080910402602001604051908101604052809291908181526020018280546103df90612bd6565b801561042c5780601f106104015761010080835404028352916020019161042c565b820191906000526020600020905b81548152906001019060200180831161040f57829003601f168201915b5050505050905090565b600061044182610f3d565b610480576040517f08c379a000000000000000000000000000000000000000000000000000000000815260040161047790612c79565b60405180910390fd5b6004600083815260200190815260200160002060009054906101000a900473ffffffffffffffffffffffffffffffffffffffff169050919050565b60006104c68261065a565b90508073ffffffffffffffffffffffffffffffffffffffff168373ffffffffffffffffffffffffffffffffffffffff1603610536576040517f08c379a000000000000000000000000000000000000000000000000000000000815260040161052d90612d0b565b60405180910390fd5b8073ffffffffffffffffffffffffffffffffffffffff16610555610fa9565b73ffffffffffffffffffffffffffffffffffffffff16148061058457506105838161057e610fa9565b610dc7565b5b6105c3576040517f08c379a00000000000000000000000000000000000000000000000000000000081526004016105ba90612d9d565b60405180910390fd5b6105cd8383610fb1565b505050565b6105e36105dd610fa9565b8261106a565b610622576040517f08c379a000000000000000000000000000000000000000000000000000000000815260040161061990612e2f565b60405180910390fd5b61062d838383611148565b505050565b600046905090565b6106558383836040518060200160405280600081525061086a565b505050565b6000806002600084815260200190815260200160002060009054906101000a900473ffffffffffffffffffffffffffffffffffffffff169050600073ffffffffffffffffffffffffffffffffffffffff168173ffffffffffffffffffffffffffffffffffffffff1603610702576040517f08c379a00000000000000000000000000000000000000000000000000000000081526004016106f990612ec1565b60405180910390fd5b80915050919050565b60008073ffffffffffffffffffffffffffffffffffffffff168273ffffffffffffffffffffffffffffffffffffffff160361077b576040517f08c379a000000000000000000000000000000000000000000000000000000000815260040161077290612f53565b60405180910390fd5b600360008373ffffffffffffffffffffffffffffffffffffffff1673ffffffffffffffffffffffffffffffffffffffff168152602001908152602001600020549050919050565b6060600180546107d190612bd6565b80601f01602080910402602001604051908101604052809291908181526020018280546107fd90612bd6565b801561084a5780601f1061081f5761010080835404028352916020019161084a565b820191906000526020600020905b81548152906001019060200180831161082d57829003601f168201915b5050505050905090565b61086661085f610fa9565b83836113ae565b5050565b61087b610875610fa9565b8361106a565b6108ba576040517f08c379a00000000000000000000000000000000000000000000000000000000081526004016108b190612e2f565b60405180910390fd5b6108c68484848461151a565b50505050565b60606108d782610f3d565b610916576040517f08c379a000000000000000000000000000000000000000000000000000000000815260040161090d90612fe5565b60405180910390fd5b600060066000848152602001908152602001600020805461093690612bd6565b80601f016020809104026020016040519081016040528092919081815260200182805461096290612bd6565b80156109af5780601f10610984576101008083540402835291602001916109af565b820191906000526020600020905b81548152906001019060200180831161099257829003601f168201915b5050505050905060006109c0611576565b905060008151036109d5578192505050610a18565b600082511115610a0a5780826040516020016109f2929190613041565b60405160208183030381529060405292505050610a18565b610a138461158d565b925050505b919050565b600080610a2983611634565b9050826000016020810190610a3e9190612772565b73ffffffffffffffffffffffffffffffffffffffff168173ffffffffffffffffffffffffffffffffffffffff1614610aab576040517f08c379a0000000000000000000000000000000000000000000000000000000008152600401610aa2906130b1565b60405180910390fd5b8260400135836060016020810190610ac39190612772565b73ffffffffffffffffffffffffffffffffffffffff1663dd62ed3e86306040518363ffffffff1660e01b8152600401610afd9291906130d1565b602060405180830381865afa158015610b1a573d6000803e3d6000fd5b505050506040513d601f19601f82011682018060405250810190610b3e919061310f565b1015610b7f576040517f08c379a0000000000000000000000000000000000000000000000000000000008152600401610b7690613188565b60405180910390fd5b826060016020810190610b929190612772565b73ffffffffffffffffffffffffffffffffffffffff166323b872dd85856000016020810190610bc19190612772565b86604001356040518463ffffffff1660e01b8152600401610be4939291906131a8565b6020604051808303816000875af1158015610c03573d6000803e3d6000fd5b505050506040513d601f19601f82011682018060405250810190610c2791906131f4565b50610c48836000016020810190610c3e9190612772565b84602001356116a6565b610ca88360200135848060800190610c609190613230565b8080601f016020809104026020016040519081016040528093929190818152602001838380828437600081840152601f19601f8201169050808301925050505050505061187f565b610cc9836000016020810190610cbe9190612772565b858560200135611148565b826020013591505092915050565b60076020528060005260406000206000915054906101000a900473ffffffffffffffffffffffffffffffffffffffff1681565b600073ffffffffffffffffffffffffffffffffffffffff168273ffffffffffffffffffffffffffffffffffffffff1603610d79576040517f08c379a0000000000000000000000000000000000000000000000000000000008152600401610d70906132df565b60405180910390fd5b60005b8151811015610dc2576000828281518110610d9a57610d996132ff565b5b60200260200101519050610dae84826118f3565b508080610dba9061335d565b915050610d7c565b505050565b6000600560008473ffffffffffffffffffffffffffffffffffffffff1673ffffffffffffffffffffffffffffffffffffffff16815260200190815260200160002060008373ffffffffffffffffffffffffffffffffffffffff1673ffffffffffffffffffffffffffffffffffffffff16815260200190815260200160002060009054906101000a900460ff16905092915050565b60007f80ac58cd000000000000000000000000000000000000000000000000000000007bffffffffffffffffffffffffffffffffffffffffffffffffffffffff1916827bffffffffffffffffffffffffffffffffffffffffffffffffffffffff19161480610f2657507f5b5e139f000000000000000000000000000000000000000000000000000000007bffffffffffffffffffffffffffffffffffffffffffffffffffffffff1916827bffffffffffffffffffffffffffffffffffffffffffffffffffffffff1916145b80610f365750610f35826119ec565b5b9050919050565b60008073ffffffffffffffffffffffffffffffffffffffff166002600084815260200190815260200160002060009054906101000a900473ffffffffffffffffffffffffffffffffffffffff1673ffffffffffffffffffffffffffffffffffffffff1614159050919050565b600033905090565b816004600083815260200190815260200160002060006101000a81548173ffffffffffffffffffffffffffffffffffffffff021916908373ffffffffffffffffffffffffffffffffffffffff160217905550808273ffffffffffffffffffffffffffffffffffffffff166110248361065a565b73ffffffffffffffffffffffffffffffffffffffff167f8c5be1e5ebec7d5bd14f71427d1e84f3dd0314c0f7b2291e5b200ac8c7c3b92560405160405180910390a45050565b600061107582610f3d565b6110b4576040517f08c379a00000000000000000000000000000000000000000000000000000000081526004016110ab90613417565b60405180910390fd5b60006110bf8361065a565b90508073ffffffffffffffffffffffffffffffffffffffff168473ffffffffffffffffffffffffffffffffffffffff16148061112e57508373ffffffffffffffffffffffffffffffffffffffff1661111684610436565b73ffffffffffffffffffffffffffffffffffffffff16145b8061113f575061113e8185610dc7565b5b91505092915050565b8273ffffffffffffffffffffffffffffffffffffffff166111688261065a565b73ffffffffffffffffffffffffffffffffffffffff16146111be576040517f08c379a00000000000000000000000000000000000000000000000000000000081526004016111b5906134a9565b60405180910390fd5b600073ffffffffffffffffffffffffffffffffffffffff168273ffffffffffffffffffffffffffffffffffffffff160361122d576040517f08c379a00000000000000000000000000000000000000000000000000000000081526004016112249061353b565b60405180910390fd5b611238838383611a56565b611243600082610fb1565b6001600360008573ffffffffffffffffffffffffffffffffffffffff1673ffffffffffffffffffffffffffffffffffffffff1681526020019081526020016000206000828254611293919061355b565b925050819055506001600360008473ffffffffffffffffffffffffffffffffffffffff1673ffffffffffffffffffffffffffffffffffffffff16815260200190815260200160002060008282546112ea919061358f565b92505081905550816002600083815260200190815260200160002060006101000a81548173ffffffffffffffffffffffffffffffffffffffff021916908373ffffffffffffffffffffffffffffffffffffffff160217905550808273ffffffffffffffffffffffffffffffffffffffff168473ffffffffffffffffffffffffffffffffffffffff167fddf252ad1be2c89b69c2b068fc378daa952ba7f163c4a11628f55a4df523b3ef60405160405180910390a46113a9838383611a5b565b505050565b8173ffffffffffffffffffffffffffffffffffffffff168373ffffffffffffffffffffffffffffffffffffffff160361141c576040517f08c379a000000000000000000000000000000000000000000000000000000000815260040161141390613631565b60405180910390fd5b80600560008573ffffffffffffffffffffffffffffffffffffffff1673ffffffffffffffffffffffffffffffffffffffff16815260200190815260200160002060008473ffffffffffffffffffffffffffffffffffffffff1673ffffffffffffffffffffffffffffffffffffffff16815260200190815260200160002060006101000a81548160ff0219169083151502179055508173ffffffffffffffffffffffffffffffffffffffff168373ffffffffffffffffffffffffffffffffffffffff167f17307eab39ab6107e8899845ad3d59bd9653f200f220920489ca2b5937696c318360405161150d91906124f4565b60405180910390a3505050565b611525848484611148565b61153184848484611a60565b611570576040517f08c379a0000000000000000000000000000000000000000000000000000000008152600401611567906136c3565b60405180910390fd5b50505050565b606060405180602001604052806000815250905090565b606061159882610f3d565b6115d7576040517f08c379a00000000000000000000000000000000000000000000000000000000081526004016115ce90613755565b60405180910390fd5b60006115e1611576565b90506000815111611601576040518060200160405280600081525061162c565b8061160b84611be7565b60405160200161161c929190613041565b6040516020818303038152906040525b915050919050565b60008061164083611d47565b905061169e81848060a001906116569190613775565b8080601f016020809104026020016040519081016040528093929190818152602001838380828437600081840152601f19601f82011690508083019250505050505050611dfa565b915050919050565b600073ffffffffffffffffffffffffffffffffffffffff168273ffffffffffffffffffffffffffffffffffffffff1603611715576040517f08c379a000000000000000000000000000000000000000000000000000000000815260040161170c90613824565b60405180910390fd5b61171e81610f3d565b1561175e576040517f08c379a000000000000000000000000000000000000000000000000000000000815260040161175590613890565b60405180910390fd5b61176a60008383611a56565b6001600360008473ffffffffffffffffffffffffffffffffffffffff1673ffffffffffffffffffffffffffffffffffffffff16815260200190815260200160002060008282546117ba919061358f565b92505081905550816002600083815260200190815260200160002060006101000a81548173ffffffffffffffffffffffffffffffffffffffff021916908373ffffffffffffffffffffffffffffffffffffffff160217905550808273ffffffffffffffffffffffffffffffffffffffff16600073ffffffffffffffffffffffffffffffffffffffff167fddf252ad1be2c89b69c2b068fc378daa952ba7f163c4a11628f55a4df523b3ef60405160405180910390a461187b60008383611a5b565b5050565b61188882610f3d565b6118c7576040517f08c379a00000000000000000000000000000000000000000000000000000000081526004016118be90613922565b60405180910390fd5b806006600084815260200190815260200160002090805190602001906118ee92919061239d565b505050565b803373ffffffffffffffffffffffffffffffffffffffff166007600083815260200190815260200160002060009054906101000a900473ffffffffffffffffffffffffffffffffffffffff1673ffffffffffffffffffffffffffffffffffffffff1614611995576040517f08c379a000000000000000000000000000000000000000000000000000000000815260040161198c9061398e565b60405180910390fd5b826007600084815260200190815260200160002060006101000a81548173ffffffffffffffffffffffffffffffffffffffff021916908373ffffffffffffffffffffffffffffffffffffffff160217905550505050565b60007f01ffc9a7000000000000000000000000000000000000000000000000000000007bffffffffffffffffffffffffffffffffffffffffffffffffffffffff1916827bffffffffffffffffffffffffffffffffffffffffffffffffffffffff1916149050919050565b505050565b505050565b6000611a818473ffffffffffffffffffffffffffffffffffffffff16611e21565b15611bda578373ffffffffffffffffffffffffffffffffffffffff1663150b7a02611aaa610fa9565b8786866040518563ffffffff1660e01b8152600401611acc9493929190613a03565b6020604051808303816000875af1925050508015611b0857506040513d601f19601f82011682018060405250810190611b059190613a64565b60015b611b8a573d8060008114611b38576040519150601f19603f3d011682016040523d82523d6000602084013e611b3d565b606091505b506000815103611b82576040517f08c379a0000000000000000000000000000000000000000000000000000000008152600401611b79906136c3565b60405180910390fd5b805181602001fd5b63150b7a0260e01b7bffffffffffffffffffffffffffffffffffffffffffffffffffffffff1916817bffffffffffffffffffffffffffffffffffffffffffffffffffffffff191614915050611bdf565b600190505b949350505050565b606060008203611c2e576040518060400160405280600181526020017f30000000000000000000000000000000000000000000000000000000000000008152509050611d42565b600082905060005b60008214611c60578080611c499061335d565b915050600a82611c599190613ac0565b9150611c36565b60008167ffffffffffffffff811115611c7c57611c7b612815565b5b6040519080825280601f01601f191660200182016040528015611cae5781602001600182028036833780820191505090505b5090505b60008514611d3b57600182611cc7919061355b565b9150600a85611cd69190613af1565b6030611ce2919061358f565b60f81b818381518110611cf857611cf76132ff565b5b60200101907effffffffffffffffffffffffffffffffffffffffffffffffffffffffffffff1916908160001a905350600a85611d349190613ac0565b9450611cb2565b8093505050505b919050565b6000611df37f8d529263c0d7f829b478a98ea4d41ad52831a60edde2809a39c0efafc23f7cb0836000016020810190611d809190612772565b84602001358560400135866060016020810190611d9d9190612772565b878060800190611dad9190613230565b604051611dbb929190613b52565b6040518091039020604051602001611dd896959493929190613b84565b60405160208183030381529060405280519060200120611e44565b9050919050565b6000806000611e098585611e5e565b91509150611e1681611edf565b819250505092915050565b6000808273ffffffffffffffffffffffffffffffffffffffff163b119050919050565b6000611e57611e516120ab565b836121c5565b9050919050565b6000806041835103611e9f5760008060006020860151925060408601519150606086015160001a9050611e93878285856121f8565b94509450505050611ed8565b6040835103611ecf576000806020850151915060408501519050611ec4868383612304565b935093505050611ed8565b60006002915091505b9250929050565b60006004811115611ef357611ef2613be5565b5b816004811115611f0657611f05613be5565b5b03156120a85760016004811115611f2057611f1f613be5565b5b816004811115611f3357611f32613be5565b5b03611f73576040517f08c379a0000000000000000000000000000000000000000000000000000000008152600401611f6a90613c60565b60405180910390fd5b60026004811115611f8757611f86613be5565b5b816004811115611f9a57611f99613be5565b5b03611fda576040517f08c379a0000000000000000000000000000000000000000000000000000000008152600401611fd190613ccc565b60405180910390fd5b60036004811115611fee57611fed613be5565b5b81600481111561200157612000613be5565b5b03612041576040517f08c379a000000000000000000000000000000000000000000000000000000000815260040161203890613d5e565b60405180910390fd5b60048081111561205457612053613be5565b5b81600481111561206757612066613be5565b5b036120a7576040517f08c379a000000000000000000000000000000000000000000000000000000000815260040161209e90613df0565b60405180910390fd5b5b50565b60007f000000000000000000000000000000000000000000000000000000000000000073ffffffffffffffffffffffffffffffffffffffff163073ffffffffffffffffffffffffffffffffffffffff1614801561212757507f000000000000000000000000000000000000000000000000000000000000000046145b15612154577f000000000000000000000000000000000000000000000000000000000000000090506121c2565b6121bf7f00000000000000000000000000000000000000000000000000000000000000007f00000000000000000000000000000000000000000000000000000000000000007f0000000000000000000000000000000000000000000000000000000000000000612363565b90505b90565b600082826040516020016121da929190613e7d565b60405160208183030381529060405280519060200120905092915050565b6000807f7fffffffffffffffffffffffffffffff5d576e7357a4501ddfe92f46681b20a08360001c11156122335760006003915091506122fb565b601b8560ff161415801561224b5750601c8560ff1614155b1561225d5760006004915091506122fb565b6000600187878787604051600081526020016040526040516122829493929190613ed0565b6020604051602081039080840390855afa1580156122a4573d6000803e3d6000fd5b505050602060405103519050600073ffffffffffffffffffffffffffffffffffffffff168173ffffffffffffffffffffffffffffffffffffffff16036122f2576000600192509250506122fb565b80600092509250505b94509492505050565b60008060007f7fffffffffffffffffffffffffffffffffffffffffffffffffffffffffffffff60001b841690506000601b60ff8660001c901c612347919061358f565b9050612355878288856121f8565b935093505050935093915050565b6000838383463060405160200161237e959493929190613f15565b6040516020818303038152906040528051906020012090509392505050565b8280546123a990612bd6565b90600052602060002090601f0160209004810192826123cb5760008555612412565b82601f106123e457805160ff1916838001178555612412565b82800160010185558215612412579182015b828111156124115782518255916020019190600101906123f6565b5b50905061241f9190612423565b5090565b5b8082111561243c576000816000905550600101612424565b5090565b6000604051905090565b600080fd5b600080fd5b60007fffffffff0000000000000000000000000000000000000000000000000000000082169050919050565b61248981612454565b811461249457600080fd5b50565b6000813590506124a681612480565b92915050565b6000602082840312156124c2576124c161244a565b5b60006124d084828501612497565b91505092915050565b60008115159050919050565b6124ee816124d9565b82525050565b600060208201905061250960008301846124e5565b92915050565b600081519050919050565b600082825260208201905092915050565b60005b8381101561254957808201518184015260208101905061252e565b83811115612558576000848401525b50505050565b6000601f19601f8301169050919050565b600061257a8261250f565b612584818561251a565b935061259481856020860161252b565b61259d8161255e565b840191505092915050565b600060208201905081810360008301526125c2818461256f565b905092915050565b6000819050919050565b6125dd816125ca565b81146125e857600080fd5b50565b6000813590506125fa816125d4565b92915050565b6000602082840312156126165761261561244a565b5b6000612624848285016125eb565b91505092915050565b600073ffffffffffffffffffffffffffffffffffffffff82169050919050565b60006126588261262d565b9050919050565b6126688161264d565b82525050565b6000602082019050612683600083018461265f565b92915050565b6126928161264d565b811461269d57600080fd5b50565b6000813590506126af81612689565b92915050565b600080604083850312156126cc576126cb61244a565b5b60006126da858286016126a0565b92505060206126eb858286016125eb565b9150509250929050565b60008060006060848603121561270e5761270d61244a565b5b600061271c868287016126a0565b935050602061272d868287016126a0565b925050604061273e868287016125eb565b9150509250925092565b612751816125ca565b82525050565b600060208201905061276c6000830184612748565b92915050565b6000602082840312156127885761278761244a565b5b6000612796848285016126a0565b91505092915050565b6127a8816124d9565b81146127b357600080fd5b50565b6000813590506127c58161279f565b92915050565b600080604083850312156127e2576127e161244a565b5b60006127f0858286016126a0565b9250506020612801858286016127b6565b9150509250929050565b600080fd5b600080fd5b7f4e487b7100000000000000000000000000000000000000000000000000000000600052604160045260246000fd5b61284d8261255e565b810181811067ffffffffffffffff8211171561286c5761286b612815565b5b80604052505050565b600061287f612440565b905061288b8282612844565b919050565b600067ffffffffffffffff8211156128ab576128aa612815565b5b6128b48261255e565b9050602081019050919050565b82818337600083830152505050565b60006128e36128de84612890565b612875565b9050828152602081018484840111156128ff576128fe612810565b5b61290a8482856128c1565b509392505050565b600082601f8301126129275761292661280b565b5b81356129378482602086016128d0565b91505092915050565b6000806000806080858703121561295a5761295961244a565b5b6000612968878288016126a0565b9450506020612979878288016126a0565b935050604061298a878288016125eb565b925050606085013567ffffffffffffffff8111156129ab576129aa61244f565b5b6129b787828801612912565b91505092959194509250565b600080fd5b600060c082840312156129de576129dd6129c3565b5b81905092915050565b600080604083850312156129fe576129fd61244a565b5b6000612a0c858286016126a0565b925050602083013567ffffffffffffffff811115612a2d57612a2c61244f565b5b612a39858286016129c8565b9150509250929050565b600067ffffffffffffffff821115612a5e57612a5d612815565b5b602082029050602081019050919050565b600080fd5b6000612a87612a8284612a43565b612875565b90508083825260208201905060208402830185811115612aaa57612aa9612a6f565b5b835b81811015612ad35780612abf88826125eb565b845260208401935050602081019050612aac565b5050509392505050565b600082601f830112612af257612af161280b565b5b8135612b02848260208601612a74565b91505092915050565b60008060408385031215612b2257612b2161244a565b5b6000612b30858286016126a0565b925050602083013567ffffffffffffffff811115612b5157612b5061244f565b5b612b5d85828601612add565b9150509250929050565b60008060408385031215612b7e57612b7d61244a565b5b6000612b8c858286016126a0565b9250506020612b9d858286016126a0565b9150509250929050565b7f4e487b7100000000000000000000000000000000000000000000000000000000600052602260045260246000fd5b60006002820490506001821680612bee57607f821691505b602082108103612c0157612c00612ba7565b5b50919050565b7f4552433732313a20617070726f76656420717565727920666f72206e6f6e657860008201527f697374656e7420746f6b656e0000000000000000000000000000000000000000602082015250565b6000612c63602c8361251a565b9150612c6e82612c07565b604082019050919050565b60006020820190508181036000830152612c9281612c56565b9050919050565b7f4552433732313a20617070726f76616c20746f2063757272656e74206f776e6560008201527f7200000000000000000000000000000000000000000000000000000000000000602082015250565b6000612cf560218361251a565b9150612d0082612c99565b604082019050919050565b60006020820190508181036000830152612d2481612ce8565b9050919050565b7f4552433732313a20617070726f76652063616c6c6572206973206e6f74206f7760008201527f6e6572206e6f7220617070726f76656420666f7220616c6c0000000000000000602082015250565b6000612d8760388361251a565b9150612d9282612d2b565b604082019050919050565b60006020820190508181036000830152612db681612d7a565b9050919050565b7f4552433732313a207472616e736665722063616c6c6572206973206e6f74206f60008201527f776e6572206e6f7220617070726f766564000000000000000000000000000000602082015250565b6000612e1960318361251a565b9150612e2482612dbd565b604082019050919050565b60006020820190508181036000830152612e4881612e0c565b9050919050565b7f4552433732313a206f776e657220717565727920666f72206e6f6e657869737460008201527f656e7420746f6b656e0000000000000000000000000000000000000000000000602082015250565b6000612eab60298361251a565b9150612eb682612e4f565b604082019050919050565b60006020820190508181036000830152612eda81612e9e565b9050919050565b7f4552433732313a2062616c616e636520717565727920666f7220746865207a6560008201527f726f206164647265737300000000000000000000000000000000000000000000602082015250565b6000612f3d602a8361251a565b9150612f4882612ee1565b604082019050919050565b60006020820190508181036000830152612f6c81612f30565b9050919050565b7f45524337323155524953746f726167653a2055524920717565727920666f722060008201527f6e6f6e6578697374656e7420746f6b656e000000000000000000000000000000602082015250565b6000612fcf60318361251a565b9150612fda82612f73565b604082019050919050565b60006020820190508181036000830152612ffe81612fc2565b9050919050565b600081905092915050565b600061301b8261250f565b6130258185613005565b935061303581856020860161252b565b80840191505092915050565b600061304d8285613010565b91506130598284613010565b91508190509392505050565b7f5369676e617475726520696e76616c6964000000000000000000000000000000600082015250565b600061309b60118361251a565b91506130a682613065565b602082019050919050565b600060208201905081810360008301526130ca8161308e565b9050919050565b60006040820190506130e6600083018561265f565b6130f3602083018461265f565b9392505050565b600081519050613109816125d4565b92915050565b6000602082840312156131255761312461244a565b5b6000613133848285016130fa565b91505092915050565b7f496e73756666696369656e7420616c6c6f77616e636500000000000000000000600082015250565b600061317260168361251a565b915061317d8261313c565b602082019050919050565b600060208201905081810360008301526131a181613165565b9050919050565b60006060820190506131bd600083018661265f565b6131ca602083018561265f565b6131d76040830184612748565b949350505050565b6000815190506131ee8161279f565b92915050565b60006020828403121561320a5761320961244a565b5b6000613218848285016131df565b91505092915050565b600080fd5b600080fd5b600080fd5b6000808335600160200384360303811261324d5761324c613221565b5b80840192508235915067ffffffffffffffff82111561326f5761326e613226565b5b60208301925060018202360383131561328b5761328a61322b565b5b509250929050565b7f496e76616c696420616464726573730000000000000000000000000000000000600082015250565b60006132c9600f8361251a565b91506132d482613293565b602082019050919050565b600060208201905081810360008301526132f8816132bc565b9050919050565b7f4e487b7100000000000000000000000000000000000000000000000000000000600052603260045260246000fd5b7f4e487b7100000000000000000000000000000000000000000000000000000000600052601160045260246000fd5b6000613368826125ca565b91507fffffffffffffffffffffffffffffffffffffffffffffffffffffffffffffffff820361339a5761339961332e565b5b600182019050919050565b7f4552433732313a206f70657261746f7220717565727920666f72206e6f6e657860008201527f697374656e7420746f6b656e0000000000000000000000000000000000000000602082015250565b6000613401602c8361251a565b915061340c826133a5565b604082019050919050565b60006020820190508181036000830152613430816133f4565b9050919050565b7f4552433732313a207472616e736665722066726f6d20696e636f72726563742060008201527f6f776e6572000000000000000000000000000000000000000000000000000000602082015250565b600061349360258361251a565b915061349e82613437565b604082019050919050565b600060208201905081810360008301526134c281613486565b9050919050565b7f4552433732313a207472616e7366657220746f20746865207a65726f2061646460008201527f7265737300000000000000000000000000000000000000000000000000000000602082015250565b600061352560248361251a565b9150613530826134c9565b604082019050919050565b6000602082019050818103600083015261355481613518565b9050919050565b6000613566826125ca565b9150613571836125ca565b9250828210156135845761358361332e565b5b828203905092915050565b600061359a826125ca565b91506135a5836125ca565b9250827fffffffffffffffffffffffffffffffffffffffffffffffffffffffffffffffff038211156135da576135d961332e565b5b828201905092915050565b7f4552433732313a20617070726f766520746f2063616c6c657200000000000000600082015250565b600061361b60198361251a565b9150613626826135e5565b602082019050919050565b6000602082019050818103600083015261364a8161360e565b9050919050565b7f4552433732313a207472616e7366657220746f206e6f6e20455243373231526560008201527f63656976657220696d706c656d656e7465720000000000000000000000000000602082015250565b60006136ad60328361251a565b91506136b882613651565b604082019050919050565b600060208201905081810360008301526136dc816136a0565b9050919050565b7f4552433732314d657461646174613a2055524920717565727920666f72206e6f60008201527f6e6578697374656e7420746f6b656e0000000000000000000000000000000000602082015250565b600061373f602f8361251a565b915061374a826136e3565b604082019050919050565b6000602082019050818103600083015261376e81613732565b9050919050565b6000808335600160200384360303811261379257613791613221565b5b80840192508235915067ffffffffffffffff8211156137b4576137b3613226565b5b6020830192506001820236038313156137d0576137cf61322b565b5b509250929050565b7f4552433732313a206d696e7420746f20746865207a65726f2061646472657373600082015250565b600061380e60208361251a565b9150613819826137d8565b602082019050919050565b6000602082019050818103600083015261383d81613801565b9050919050565b7f4552433732313a20746f6b656e20616c7265616479206d696e74656400000000600082015250565b600061387a601c8361251a565b915061388582613844565b602082019050919050565b600060208201905081810360008301526138a98161386d565b9050919050565b7f45524337323155524953746f726167653a2055524920736574206f66206e6f6e60008201527f6578697374656e7420746f6b656e000000000000000000000000000000000000602082015250565b600061390c602e8361251a565b9150613917826138b0565b604082019050919050565b6000602082019050818103600083015261393b816138ff565b9050919050565b7f4f6e6c792063726561746f7220616c6c6f776564000000000000000000000000600082015250565b600061397860148361251a565b915061398382613942565b602082019050919050565b600060208201905081810360008301526139a78161396b565b9050919050565b600081519050919050565b600082825260208201905092915050565b60006139d5826139ae565b6139df81856139b9565b93506139ef81856020860161252b565b6139f88161255e565b840191505092915050565b6000608082019050613a18600083018761265f565b613a25602083018661265f565b613a326040830185612748565b8181036060830152613a4481846139ca565b905095945050505050565b600081519050613a5e81612480565b92915050565b600060208284031215613a7a57613a7961244a565b5b6000613a8884828501613a4f565b91505092915050565b7f4e487b7100000000000000000000000000000000000000000000000000000000600052601260045260246000fd5b6000613acb826125ca565b9150613ad6836125ca565b925082613ae657613ae5613a91565b5b828204905092915050565b6000613afc826125ca565b9150613b07836125ca565b925082613b1757613b16613a91565b5b828206905092915050565b600081905092915050565b6000613b398385613b22565b9350613b468385846128c1565b82840190509392505050565b6000613b5f828486613b2d565b91508190509392505050565b6000819050919050565b613b7e81613b6b565b82525050565b600060c082019050613b996000830189613b75565b613ba6602083018861265f565b613bb36040830187612748565b613bc06060830186612748565b613bcd608083018561265f565b613bda60a0830184613b75565b979650505050505050565b7f4e487b7100000000000000000000000000000000000000000000000000000000600052602160045260246000fd5b7f45434453413a20696e76616c6964207369676e61747572650000000000000000600082015250565b6000613c4a60188361251a565b9150613c5582613c14565b602082019050919050565b60006020820190508181036000830152613c7981613c3d565b9050919050565b7f45434453413a20696e76616c6964207369676e6174757265206c656e67746800600082015250565b6000613cb6601f8361251a565b9150613cc182613c80565b602082019050919050565b60006020820190508181036000830152613ce581613ca9565b9050919050565b7f45434453413a20696e76616c6964207369676e6174757265202773272076616c60008201527f7565000000000000000000000000000000000000000000000000000000000000602082015250565b6000613d4860228361251a565b9150613d5382613cec565b604082019050919050565b60006020820190508181036000830152613d7781613d3b565b9050919050565b7f45434453413a20696e76616c6964207369676e6174757265202776272076616c60008201527f7565000000000000000000000000000000000000000000000000000000000000602082015250565b6000613dda60228361251a565b9150613de582613d7e565b604082019050919050565b60006020820190508181036000830152613e0981613dcd565b9050919050565b7f1901000000000000000000000000000000000000000000000000000000000000600082015250565b6000613e46600283613005565b9150613e5182613e10565b600282019050919050565b6000819050919050565b613e77613e7282613b6b565b613e5c565b82525050565b6000613e8882613e39565b9150613e948285613e66565b602082019150613ea48284613e66565b6020820191508190509392505050565b600060ff82169050919050565b613eca81613eb4565b82525050565b6000608082019050613ee56000830187613b75565b613ef26020830186613ec1565b613eff6040830185613b75565b613f0c6060830184613b75565b95945050505050565b600060a082019050613f2a6000830188613b75565b613f376020830187613b75565b613f446040830186613b75565b613f516060830185612748565b613f5e608083018461265f565b969550505050505056fea2646970667358221220f7fba82d31548abbdf970d4a11686b3aa2da76b9b1554bd5ada103971c2cfbaa64736f6c634300080d0033",
  "immutableReferences": {
    "2165": [
      {
        "length": 32,
        "start": 8494
      }
    ],
    "2167": [
      {
        "length": 32,
        "start": 8453
      }
    ],
    "2169": [
      {
        "length": 32,
        "start": 8367
      }
    ],
    "2171": [
      {
        "length": 32,
        "start": 8570
      }
    ],
    "2173": [
      {
        "length": 32,
        "start": 8603
      }
    ],
    "2175": [
      {
        "length": 32,
        "start": 8537
      }
    ]
  },
  "source": "//SPDX-License-Identifier: Unlicense\r\npragma solidity ^0.8.0;\r\n\r\nimport \"@openzeppelin/contracts/token/ERC20/IERC20.sol\";\r\nimport \"@openzeppelin/contracts/token/ERC721/ERC721.sol\";\r\nimport \"@openzeppelin/contracts/token/ERC721/extensions/ERC721URIStorage.sol\";\r\nimport \"@openzeppelin/contracts/utils/cryptography/ECDSA.sol\";\r\nimport \"@openzeppelin/contracts/utils/cryptography/draft-EIP712.sol\";\r\n\r\nstruct NFTVoucher {\r\n    address creator;\r\n    uint256 tokenId;\r\n    uint256 price;\r\n    address currency;\r\n    string uri;\r\n    bytes signature;\r\n}\r\n\r\ncontract LazyNFT is ERC721URIStorage, EIP712 {\r\n    string private constant SIGNING_DOMAIN = \"LazyNFT-Voucher\";\r\n    string private constant SIGNATURE_VERSION = \"1\";\r\n    \r\n    mapping(uint256 => address) public creators;\r\n\r\n    constructor() ERC721(\"mechlin\",\"mck\") \r\n        EIP712(SIGNING_DOMAIN, SIGNATURE_VERSION) {}\r\n\r\n    modifier onlyCreator(uint256 tokenId) {\r\n        require(creators[tokenId] == msg.sender, \"Only creator allowed\");\r\n        _;\r\n    }\r\n\r\n    function redeem(address redeemer, NFTVoucher calldata voucher) public returns (uint256) {\r\n        address signer = _verify(voucher);\r\n\r\n        require(signer == voucher.creator, \"Signature invalid\");\r\n        require(IERC20(voucher.currency).allowance(redeemer, address(this)) >= voucher.price, \"Insufficient allowance\");\r\n\r\n        IERC20(voucher.currency).transferFrom(redeemer, voucher.creator, voucher.price);\r\n\r\n        _mint(voucher.creator, voucher.tokenId);\r\n        _setTokenURI(voucher.tokenId, voucher.uri);\r\n\r\n        _transfer(voucher.creator, redeemer, voucher.tokenId);\r\n\r\n        return voucher.tokenId;\r\n    }\r\n\r\n    function getChainId() external view returns (uint256) {\r\n        return block.chainid;\r\n    }\r\n\r\n    function _verify(NFTVoucher calldata voucher) internal view returns (address) {\r\n        bytes32 digest = _hash(voucher);\r\n        return ECDSA.recover(digest, voucher.signature);\r\n    }\r\n\r\n    function _hash(NFTVoucher calldata voucher) internal view returns (bytes32) {\r\n        return _hashTypedDataV4(keccak256(abi.encode(\r\n            keccak256(\"NFTVoucher(address creator, uint256 tokenId, uint256 price, address currency, string uri\"),\r\n            voucher.creator,\r\n            voucher.tokenId,\r\n            voucher.price,\r\n            voucher.currency,\r\n            keccak256(bytes(voucher.uri))\r\n        )));\r\n    }\r\n\r\n    function setCreator(address to, uint256[] memory tokenIds) public {\r\n        require(to != address(0), \"Invalid address\");\r\n        for (uint256 i = 0; i < tokenIds.length; i++) {\r\n            uint256 tokenId = tokenIds[i];\r\n            _setCreator(to, tokenId);\r\n        }\r\n    }\r\n\r\n     function _setCreator(address to, uint256 tokenId) internal onlyCreator(tokenId) {\r\n        creators[tokenId] = to;\r\n    }\r\n\r\n    function supportsInterface(bytes4 interfaceId) public view virtual override returns (bool) {\r\n        return ERC721.supportsInterface(interfaceId);\r\n    }\r\n}",
  "sourcePath": "D:\\office\\Lazy Minting\\contracts\\lazy.sol",
  "compiler": {
    "name": "solc",
    "version": "0.8.13+commit.abaa5c0e.Emscripten.clang"
  },
  "schemaVersion": "3.4.6",
  "updatedAt": "2022-04-12T15:09:10.438Z",
  "networkType": "ethereum",
  "devdoc": {
    "kind": "dev",
    "methods": {
      "approve(address,uint256)": {
        "details": "See {IERC721-approve}."
      },
      "balanceOf(address)": {
        "details": "See {IERC721-balanceOf}."
      },
      "getApproved(uint256)": {
        "details": "See {IERC721-getApproved}."
      },
      "isApprovedForAll(address,address)": {
        "details": "See {IERC721-isApprovedForAll}."
      },
      "name()": {
        "details": "See {IERC721Metadata-name}."
      },
      "ownerOf(uint256)": {
        "details": "See {IERC721-ownerOf}."
      },
      "safeTransferFrom(address,address,uint256)": {
        "details": "See {IERC721-safeTransferFrom}."
      },
      "safeTransferFrom(address,address,uint256,bytes)": {
        "details": "See {IERC721-safeTransferFrom}."
      },
      "setApprovalForAll(address,bool)": {
        "details": "See {IERC721-setApprovalForAll}."
      },
      "supportsInterface(bytes4)": {
        "details": "See {IERC165-supportsInterface}."
      },
      "symbol()": {
        "details": "See {IERC721Metadata-symbol}."
      },
      "tokenURI(uint256)": {
        "details": "See {IERC721Metadata-tokenURI}."
      },
      "transferFrom(address,address,uint256)": {
        "details": "See {IERC721-transferFrom}."
      }
    },
    "version": 1
  },
  "userdoc": {
    "kind": "user",
    "methods": {},
    "version": 1
  }
}